:02000002D0002C
:1040000000400D00B0CD0D00000006000C000501C1
:084010000401E80500000000B6
:0440180080B80D005F
:1040200009480A49884208B505D0094A824202D0A7
:10403000121A05F033FE0748074A0021121A05F04C
:1040400053FE014808BD00BFF4DC0320C4C80D00C6
:10405000B8E10320B8E10320F0E7032070B502F0D7
:10406000B5FE074C074BE41AA40800251E46A542DE
:1040700004D056F8253098470135F8E770BD00BFE9
:10408000B4C80D0064C80D0000F046B808B500F0D3
:1040900089FABDE8084002F05BBE02F04DBB02F0B9
:1040A00053BB02F051BB000008B5034A00210C20AD
:1040B00002F0B6FAFEE700BF81630D000078B0FAA7
:1040C00080F04009704701230370704770477047C4
:1040D00038B584690A4B036005467CB16368013BCF
:1040E00063605BB9236820469B689847A368013BDF
:1040F000A3601BB923682046DB689847284638BD73
:10410000C0C40D0010B50446FFF7E2FF20461C2195
:1041100003F006FE204610BD10B51B491B4C1C4881
:1041200001F0B2FD03F0C8FD03F04CF83C2202217F
:10413000204601F031F9204601F000FA204601F056
:10414000DBF8204601F0FAF97621124800F0F0FE83
:10415000114801F0FDFF114B0121188803F018FDF3
:104160000F4B0021188803F013FD02F011F90D4BDD
:10417000186002F041FF4FF4165102F031FF642045
:10418000BDE8104002F0A6BDFCE2032034E30320AA
:1041900014E20320D0E103205CE30320F4DC0320DD
:1041A000FCDC0320B8E3032038B5174801F010FC0D
:1041B00040BB02F021FF154902F002FD124801F058
:1041C00026FF0446B8B102F017FF214605460E4807
:1041D00001F038FD0146284602F005FD02F00CFF13
:1041E0000B4902F000FD084801F03AFD41F2883029
:1041F00002F070FDE2E702F0FFFE0649BDE838403C
:1042000002F0F1BC38BD00BF14E2032094B80D00E9
:10421000A9B80D00D3B80D0010B50D4C204600F024
:10422000EBFBF2EE027A20EE270AB1EE047AC0EE42
:10423000077A084B20469FED087A77EE877AC3ED20
:10424000007A00F071FC054B83ED000A10BD00BF41
:10425000D0E1032094E3032000000042F8E20320B1
:1042600013B52E4C204601F047F8204601F066F9C0
:104270002046012101F09AFB2046012101F09BFB21
:1042800000221146204601F08EFB254B186805F0F0
:104290003FF9244ACDE900010021204602F0CDFC7F
:1042A000204601F04BF902F0A7FE1F4902F09BFCEB
:1042B00020460A22002101F076FB1C4B1C4A1B6899
:1042C0000021204602F0B9FC14222046002101F012
:1042D0006AFB184B186805F01BF9174ACDE9000175
:1042E0000021204602F0A9FC144A0021204602F0D9
:1042F000A4FC204601F022F920461922002101F0F9
:1043000052FB0F4B0F4A1B680021204602F095FC20
:10431000204602B0BDE8104001F010B934E303209C
:1043200094E30320E3B80D00FBB80D0058E303202D
:104330000BB90D00BCE103201EB90D0036B90D000C
:10434000C4E1032043B90D0038B502F021F80F4C49
:10435000054602F01DF8401BB0F5FA7F09D801218F
:10436000208803F026FC02F047FE094902F03BFCDE
:10437000EFE7064B0021188803F01BFC02F03CFE1F
:104380000449BDE8384002F02EBC00BFF4DC032035
:10439000DCB90D0050B90D002DE9F0432DED028B75
:1043A000494B4A4C18884A4D83B0002103F067FC02
:1043B000484B186023681844206001F0E9FF464B21
:1043C0001E682B68C01AB04266D9206805F07EF8D6
:1043D00080463046894605F079F800223F4B404E32
:1043E00005F0EAF802460B464046494605F00EFA4B
:1043F00005F0DAFB306005F08BF89FED2B1B41ECEC
:10440000100B03F0E9FD96ED008A18EE100A8DED11
:10441000000B05F07DF89DED000B8046894624A336
:10442000D3E9002351EC100B05F0C6F842460646CE
:104430000F464B464046494605F0BEF81EA3D3E959
:10444000002305F0B9F802460B463046394604F021
:10445000FFFEDFED247A68EE277A064617EE900A13
:104460000F4605F055F802460B463046394604F033
:10447000F1FE13A3D3E9002304F0ECFE05F094FB56
:10448000194B186002F0B8FD184902F0ACFB00238C
:10449000236001F07DFF286003B0BDEC028BBDE816
:1044A000F08300BFAFF30080000000000000084070
:1044B0009A9999999999F13F6666666666660E4083
:1044C000D7A3703D0AD7E33FFCDC0320CCE30320F5
:1044D000B8E30320B4E30320F8DC03200000244009
:1044E000C0E1032000000244BCE103205BB90D00E1
:1044F00070B52448244D254C01F05AFE286021480F
:1045000001F03BFE2249234A096810600023236022
:104510002B688B4215460BD01F4A1268934207D076
:104520001E4A1268934203D01D4A1268934200D17A
:10453000236002F061FD2D68002D064604DA2D216E
:1045400002F042FB694200E029460A22304602F0AE
:1045500054FB304602F03BFB02F04EFD2468002C79
:10456000054604DA2D2102F02FFB614200E02146CE
:1045700028460A2202F041FB2846BDE8704002F0BE
:1045800026BB00BF5CE30320BCE30320C4E103209F
:1045900090C20D0098E303208CC20D0084C20D0070
:1045A00088C20D0070B5122003F02FFB3C4D3D4B2F
:1045B0003D4C18602860FFF72FFEFFF7EDFEFFF778
:1045C00097FFFFF74DFEFFF7EFFD01F0E1FE2368D7
:1045D000C01A364B98422E4617D902F00DFD344AC8
:1045E000002102F02AFB0121324801F0E7FB0546D9
:1045F00040B902F001FD304A294602F01EFB2D4869
:1046000001F02EFB01F0C4FE20602C4D294841F240
:10461000883101F055FBB0B1A842F7D1681D05F013
:1046200013FB51EC100B05F0BFFA07EE900AB7EE42
:10463000007A234BF4EE477AF1EE10FA1860E5D1D8
:10464000FFF782FEE2E701F0A3FE2368C01A43F6FB
:104650009823984223D9174801F038FAE0B131681D
:10466000184801F041FD184B186804F051FF41EC67
:10467000100B0221154801F039FD154B154819683A
:1046800001F032FD144B186804F042FF41EC100BAE
:104690000221124801F02AFD01F07AFE206070BD6F
:1046A00058E30320CCE10320C8E10320C0D401007B
:1046B0006FB90D0014E203207DB90D00FCE2032068
:1046C000F4E203209CE3032094E30320E8E20320C8
:1046D00098E30320C0E30320BCE10320A8E3032008
:1046E00010B5D421044603F01BFB204610BD10B5C5
:1046F0002421044603F014FB204610BD73B5284E58
:10470000284D294C01F094FD304603F00BF92A4660
:104710002649304603F0F6FA254B009340F25B72CF
:10472000244B2549204601F007FA244BC4F8D060F9
:104730002A462349234E2360204603F0E3FA224809
:1047400000F088F81321304600F0C0FD2A461F49CA
:10475000304603F0D7FA11211D4801F0F4FC214640
:1047600000231C4A1C4801F0DFFC214600231B4AA1
:104770001B4801F0A5FC214600231A4A1A4801F003
:104780009FFC21460023194A194801F099FC194A57
:1047900019480023214602B0BDE8704001F090BCEA
:1047A00078E30320B8E1032014E20320D1400D0098
:1047B000A9B90D008DB90D0099B90D0028C00D00E3
:1047C000CD400D0034E30320D0E10320CF400D00A5
:1047D0005CE30320CAB90D00FCE20320E4B90D003C
:1047E0009CE3032001BA0D00E8E203201CBA0D008F
:1047F000C0E303203CBA0D00A8E303207FB50246C6
:1048000008461379956833B13DB90C4904B0BDE849
:10481000704002F0D5B90A4B00E00A4B167B0A4CF7
:104820000A49527B0292012E08BF21460191009550
:10483000074A002102F001FA04B070BD7DBA0D00F4
:104840009DC00D006CBA0D0075BA0D0079BA0D004F
:1048500093BA0D00FF22027442748274C2747047CE
:1048600038B5094D296811F001040AD12846FFF72F
:1048700025FC30B12146054801F0D2FF2846FFF75C
:1048800022FC024838BD00BFD0E30320D4E303205C
:104890002DE9F04190F91330013305460F4606D15A
:1048A000FFF7DEFF3946BDE8F04102F0D5B8072634
:1048B00000244FF0010895F91300002180B203F0A5
:1048C00078F995F9110008FA06F1394080B203F041
:1048D00070F995F91300012180B203F06AF995F996
:1048E0001200640080B2E4B203F07CF908B144F035
:1048F000010416F1FF36DED22046BDE8F08108B58E
:10490000FFF7AEFFBDE8084001F0C7BF10B5044691
:10491000FFF7A6FF2146BDE8104001F0D7BF000019
:1049200030B590F91030013385B004460D4621D1E1
:104930000179006802F07DFC2068036829469B68C5
:104940009847206802F080FC03222179206802F059
:104950006DFC206803685B6998470502206803685E
:104960005B69984728430502206803685B6998479C
:10497000054339E090F9133001330ED11C4B1D4A29
:10498000009302920023012268468DF804308DF8CE
:104990000C208DF80D30FFF7B9FF94F910000021BD
:1049A00080B203F006F945F080012046FFF770FF62
:1049B00000212046FFF76CFF002105022046FFF78B
:1049C00067FF2843050200212046FFF761FF0543EA
:1049D00094F91000012180B203F0EBF894F9133040
:1049E000013301D1FFF78BFF284605B030BD00BF72
:1049F00068BA0D0020A1070010B5FA210446FFF7A0
:104A00008FFFB0F5000F1ED0A28A9FED107AC2EB87
:104A100020235200C2EBE010B4F916205B43504350
:104A2000B4F918201B1353439B1303EBE020E06001
:104A300000EB80008030001207EE900AF8EEE77A73
:104A400087EE870A10BD9FED020A10BD0000C84224
:104A50000000C07F30B590F91030013385B00446B6
:104A60000D461DD10179006802F0E3FB2068036860
:104A700029469B689847206802F0E6FB02222179CC
:104A8000206802F0D3FB206803685B6998470546FD
:104A9000206803685B69984740EA052085B235E0E5
:104AA00090F9133001330ED11A4B1B4A0093029236
:104AB0000023012268468DF804308DF80C208DF813
:104AC0000D30FFF723FF94F91000002180B203F0AE
:104AD00070F845F080012046FFF7DAFE00212046FD
:104AE000FFF7D6FE002105462046FFF7D1FE40EA3B
:104AF000052085B294F91000012180B203F059F825
:104B000094F91330013301D1FFF7F9FE284605B0BF
:104B100030BD00BF68BA0D0020A1070008B5FFF73F
:104B200099FF40BA80B208BD10B50446FFF764FF94
:104B3000FD212046FFF78EFFB0F5004F38D0B4F9C5
:104B40003230E268B4F934101B05A2F59632C3EB9B
:104B5000803302FB113303F58043D91394F83030CE
:104B600094F936005343DB124243921203F500439B
:104B700053439B12B4F92E2003F50013534303F55E
:104B800000539B134B43DA1394F82C105243D21169
:104B90004A43A3EB221323EAE373B3F1C85FA8BF30
:104BA0004FF0C8531B1300EE103ABAEECB0A10BDFB
:104BB0009FED010A10BD00BF0000C07F30B590F925
:104BC0001030013385B004460D4616D101790068D6
:104BD00002F02FFB2068036829469B6898472068ED
:104BE00002F032FB01222179206802F01FFB2068CD
:104BF00003685B699847C5B22EE090F91330013322
:104C00000ED1174B174A00930292002301226846E7
:104C10008DF804308DF80C208DF80D30FFF776FEFE
:104C200094F91000002180B202F0C3FF45F080012A
:104C30002046FFF72DFE00212046FFF729FE0546FE
:104C400094F91000012180B202F0B3FF94F91330FF
:104C5000013301D1FFF753FE284605B030BD00BF38
:104C600068BA0D0020A1070008B5F321FFF7A6FFE1
:104C700000F0010008BD38B588210446FFF74EFF5B
:104C80008A21A0822046FFF749FF8C21E08220463E
:104C9000FFF744FF8E2120832046FFF73FFF90213E
:104CA00060832046FFF73AFF9221A0832046FFF75A
:104CB00035FF9421E0832046FFF730FF96212084C2
:104CC0002046FFF72BFF982160842046FFF726FF40
:104CD0009A21A0842046FFF721FF9C21E0842046F2
:104CE000FFF71CFF9E2120852046FFF717FFA1211B
:104CF00060852046FFF762FFE12184F82C00204602
:104D0000FFF70CFFE321E0852046FFF757FFE42182
:104D100084F830002046FFF751FFE5210546204684
:104D2000FFF74CFF00F00F0040EA05106086E62117
:104D30002046FFF743FFE52105462046FFF73EFFEB
:104D4000001140EA0510A086E7212046FFF736FF54
:104D500084F8360038BD00007FB590F9103001337B
:104D600004460E46154611D10179006802F061FA39
:104D70002068036831469B68984720680368294685
:104D80009B689847206802F05FFA2DE090F9133095
:104D900001330ED1154B164A0093029200230122D3
:104DA00068468DF804308DF80C208DF80D30FFF733
:104DB000ADFD94F91000002180B202F0FAFE06F079
:104DC0007F012046FFF764FD29462046FFF760FD7E
:104DD00094F91000012180B202F0EBFE94F9133037
:104DE000013301D1FFF78BFD04B070BD68BA0D002F
:104DF00020A10700F8B590F83C509DF818609DF888
:104E00001CE09DF8207061F3871562F3020563F3DF
:104E1000C50590F8403080F83C5066F3471380F8A1
:104E2000403090F838306EF3C503044667F3020350
:104E300080F8383006F00702F221FFF78DFF94F872
:104E40003820C2F3C20302F007019B0043EA41137A
:104E500043EAD2122046F521FFF77EFF94F83C206A
:104E6000C2F3C20302F007019B0043EA411343EA85
:104E700092122046F421BDE8F840FFF76DBF30B52F
:104E8000044690F91000421C85B003D1206802F05E
:104E900099F922E0012180B202F08BFE94F9100012
:104EA000012180B202F074FE94F91300431C04D176
:104EB000FFF7D6FC01F0BEFC0FE0012180B202F04A
:104EC00067FE94F91100012180B202F061FE94F9AD
:104ED0001200002180B202F05BFED0212046FFF7D5
:104EE0006DFE6028A06020D12046B622E021FFF7A9
:104EF00033FF4FF4967001F0EDFE2046FFF7B4FE4D
:104F0000054608B16420F6E72046FFF7B4FE052306
:104F100000931A460321204602950195FFF76AFF88
:104F2000642001F0D7FE012000E0002005B030BD74
:104F300010B50171044602F0BFFE20602046BDE8B6
:104F40001040FFF79CBF01F073B90000F0B5447E3C
:104F5000BDF81450022C08D0032C0FD0012C70D1B6
:104F60000489013CA21A12B20CE04489013CA21A45
:104F70000489E41A611A12B209B262E04489E41A9F
:104F8000611A09B2002A5BDBB0F90840944240F391
:104F900090800029BEBF5B181BB20021B0F90A0047
:104FA000CC188442C4BF431A1BB2002B40F381804B
:104FB000C9B2C8083F4F02EBC01211F00701DBB2C3
:104FC00007EB020417D0C1F10801C8B23A49834285
:104FD0000E5C3FBFC3EB000EFF2141FA0EF10E4005
:104FE000B95C012D0CBF3143B1438342B95460D346
:104FF000181AC3B28034072B17D9012D0CBFFF201C
:10500000002004F180011A46083AD2B2072A01F8BA
:10501000800C01F18001F7D8A3F10802C2F3C402A9
:10502000013204EBC21403F00703002B41D0234AE2
:10503000D25C2378012D0CBF134393432370F0BD42
:10504000F0BD002A35DBB0F90A40944231DD002979
:10505000BCBFC9180BB2B0F90870B8BF0021CE1898
:10506000BE42C4BF631A1BB2002B22DDD01001EB7D
:10507000C011104802F007020144012000FA02F2B8
:105080008542D2B209D1013B1BB25C1C11D011F890
:10509000010B104301F8010CF5E7D243D2B2013BFA
:1050A0001BB2581C05D011F8010B104001F8010C7F
:1050B000F5E7F0BD10DD032008DD032000DD03204F
:1050C000F0B5447EBDF81450022C08D0032C0FD04C
:1050D000012C12D10489E41AA21A12B26DE00489DB
:1050E000013C611A4489E41AA21A09B212B204E01E
:1050F0004489013C611A09B25FE000295CDBB0F928
:1051000008408C4240F39180002ABCBFD21813B2F1
:10511000B0F90A00B8BF0022D4188442C4BF831A71
:105120001BB2002B40F38180D4B2404EDAB2E308C8
:1051300001EBC31114F0070406EB010317D0C4F10F
:105140000804E0B23A4C8242275C3FBFC2EB000E3B
:10515000FF2444FA0EF42740745C012D0CBF3C433D
:10516000BC438242745460D3101AC2B28033072AFF
:1051700017D9012D0CBFFF24002403F18000114634
:105180000839C9B2072900F8804C00F18000F7D82F
:10519000A2F10801C1F3C401013103EBC11302F014
:1051A0000702002A41D02349895C1A78012D0CBFDF
:1051B0000A438A431A70F0BDF0BD002935DBB0F90F
:1051C0000A408C4231DD002ABCBFD21813B2B0F9BC
:1051D0000870B8BF0022D618BE42C4BFA31A1BB2C3
:1051E000002B22DDC81002EBC012104801F00701AD
:1051F0001044012202FA01F19542C9B209D15A1EA6
:1052000013B25C1C11D010F8012B0A4300F8012CDA
:10521000F5E7C943C9B25A1E13B25A1C05D010F89B
:10522000012B0A4000F8012CF5E7F0BD10DD03204A
:1052300008DD032000DD0320F8B50D1E06461446E8
:105240001F463FDB00F0BCFB85423BDA002C39DB1C
:10525000304600F0B8FB844234DA304600F0AEFB52
:10526000022827D13189708901390138491B001B77
:105270000DB204B206E0012804D13389013B1B1BA7
:105280002C461DB20820012F94FBF0F000B20E4B0B
:1052900004F0070205EBC01104D197405A5C174394
:1052A0005F54F8BD585C012707FA02F220EA0202B7
:1052B0005A54F8BD0328DED17389013B5B1B254698
:1052C0001CB2DFE7F8BD00BF10DD032038B5402277
:1052D00004460D46802100F087FA064B2360FF2329
:1052E000637784F82130E377A37784F82050204651
:1052F00038BD00BFBCBA0D004FF4806200210148E8
:1053000004F0F2BC10DD032038B590F91D300133F4
:1053100004460D4628D090F92100012180B202F008
:1053200048FC94F91F00002180B202F042FC94F97D
:105330002100002180B202F03CFC94F822302BB115
:10534000FFF78EFA294601F087FB05E02B46012284
:10535000A17F607F02F070FC94F92100012180B2EE
:10536000BDE8384002F025BC02F0A6FC94F91B1001
:1053700001F063FF02F0A0FC036800219B689847DE
:1053800002F09AFC036829469B68984702F094FC57
:10539000BDE8384001F058BF38B504460D462177C6
:1053A00090F91D30C276013337D090F91F000121EA
:1053B00080B202F0EDFB94F92100012180B202F0ED
:1053C000E7FB94F822305BB994F91D00012180B20B
:1053D00002F0DEFB94F91E00012180B202F0D8FB3E
:1053E00094F82230EBB194F92100012180B202F04F
:1053F000E0FBFFF735FA012101F02DFAFFF730FA53
:10540000102101F005FBFFF72BFA002101F034FA1F
:10541000FFF726FA01F00EFA03E002F04DFC01F06E
:10542000D1FE94F92000012180B202F0B1FB94F981
:105430002000012180B202F0BCFB012001F04AFCF7
:1054400094F92000002180B202F0B3FB0A2001F0A1
:1054500041FC94F92000012180B202F0AAFB204611
:10546000AE21FFF751FF2046D521FFF74DFF204623
:105470008021FFF749FF2046A821FFF745FF20467E
:105480003F21FFF741FF2046D321FFF73DFF204694
:105490000021FFF739FF20464021FFF735FF8D211E
:1054A0002046FFF731FF012D0CBF102114212046AB
:1054B000FFF72AFF20462021FFF726FF2046002184
:1054C000FFF722FF2046A121FFF71EFF2046C8213B
:1054D000FFF71AFF2046DA21FFF716FF20461221B8
:1054E000FFF712FF81212046FFF70EFF012D0CBFB1
:1054F0009F21CF212046FFF707FFD9212046FFF744
:1055000003FF012D0CBF2221F1212046FFF7FCFEF5
:105510002046DB21FFF7F8FE20464021FFF7F4FE8E
:105520002046A421FFF7F0FE2046A621FFF7ECFE5F
:105530002046AF21BDE83840FFF7E6BE2DE9F04137
:1055400021210446FFF7E0FE00212046FFF7DCFEA4
:105550007F212046FFF7D8FE22212046FFF7D4FE08
:1055600000212046FFF7D0FE07212046FFF7CCFEA2
:1055700094F91D30DFF8BC80013335D094F9210057
:10558000012180B202F015FB94F91F00012180B2C5
:1055900002F00FFB94F92100002180B202F009FB18
:1055A000012000F0EDFE002594F8223018F8056087
:1055B0002BB1FFF755F9314601F04EFA05E03346BD
:1055C0000122A17F607F02F037FB0135B5F5806FC6
:1055D000EAD1012000F0D4FE94F92100012180B22B
:1055E000BDE8F04102F0E5BA002502F065FB94F950
:1055F0001B1001F022FE02F05FFB036840219B6854
:105600009847002602F058FBAF190368BFB29B68A9
:1056100018F8071001369847102EF3D1103502F014
:105620004BFBADB201F010FEB5F5806FDDD1BDE8EA
:10563000F08100BF10DD032000F0FABD2DE9F04F2E
:1056400085B01E46BDF93830BDF83CA015469A1A03
:10565000002AB8BF52420092721A002AB8BF5242C2
:1056600001920C46009A01998A42814605DD324634
:105670001E46134622462C461546B44205DD2A46F0
:105680001D4613462246344616465A1B002AB8BF0A
:105690005242C4EB06089D42B4BF01234FF0FF33D2
:1056A0001FFA88F8029303920FFA88F7022297FBF9
:1056B000F2F7B4421FDC019A009B9342D9F8003004
:1056C000C8BF2246D3F810B0C8BF29465346DCBF36
:1056D0002A4621464846D847039BFF1ABBB21FB251
:1056E000002F05DA029A08EB030715442DB23FB2EA
:1056F000013424B2DDE705B0BDE8F08F2DE9F347B2
:10570000BDF82C600768BDF928A000960446FF6923
:1057100091460D469846B847236800960AF1FF3235
:105720004A44DF6929464346204612B2B8472368F7
:1057300000969F694A46534629462046B847236843
:105740000A9608F1FF3129449D694A46534609B239
:105750002046AC4602B0BDE8F047604737B5013B94
:1057600013440468BDF8185001951BB20093646996
:105770000B46A04703B030BD37B5BDF818500468DC
:105780008DE82400013B0B4464691BB2A04703B0C1
:1057900030BD2DE9F347BDF92880BDF82C900546B2
:1057A00017460C4601EB030A54450BDA2B68CDF87B
:1057B00000909E69214643463A4628460134B04748
:1057C00024B2F1E702B0BDE8F08713B5B0F90E20BE
:1057D0000468019100920022B0F90C30646A11460D
:1057E000A04702B010BD704730B501810024084DBC
:1057F00042818181C2814FF6FF71012244600560C0
:105800004476048244820276C1828182827630BDEF
:10581000F4BA0D002DE9F04F8FB005460691BDF8A2
:1058200060100791BDF864100891B0F90C1006984B
:105830009DF8688081427CDDB5F90E10914278DDDB
:10584000062111FB0800002873DD02EBC8000028C8
:105850006FDD03EB830396B20C9306F108039BB252
:10586000099100240D93052C1CBF334B0C9A05960F
:1058700016BF1B194FF0000913F8029004961FFA87
:1058800088F30393039ABDF8183004FB023213FA2D
:1058900084F312B21BB20A9237460FFA88FA0B93BE
:1058A00019F0010F11D0B8F1010F2B6803D1D3F813
:1058B00010B0079B14E0079A0192CDF800A0D3F82E
:1058C00024B0BDF91020534618E0079B089A934274
:1058D00017D0B8F1010F2B6807D1D3F810B01346D9
:1058E0003AB20B992846D8470BE0089A0192CDF8B6
:1058F00000A0BDF91420D3F824B053460A992846D5
:10590000D847049B039A13449BB20493059B13440A
:105910009BB2013705930D9BBFB29F424FEA5909D5
:10592000BED1099B013B013413F0FF0364B209931C
:1059300099D10FB0BDE8F08F24BB0D0030B50A2916
:1059400085B004460B4604D1027E438A03EBC203B2
:1059500023E00D2924D0057EB0F91220B0F91010F3
:105960000295C58A0195858A0095FFF753FF227E2F
:10597000238A91B201EB410003EB4003A07E1BB2EE
:10598000238268B1B4F90C006FF0050505FB020233
:10599000934205DD638A03EBC10363820023238204
:1059A000012005B030BD018242827047002908BF46
:1059B000012101767047C18281827047407E704725
:1059C000B0F90C007047B0F90E00704700F030BC21
:1059D00008B5D0F8D00003681B6B9847003018BF9B
:1059E000012008BDF8B506460F461446C4B1D6F8E6
:1059F000D00003681B6B984708B90020F8BDD6F8A3
:105A0000D000FA2C03682546A8BFFA25DB682A4691
:105A10003946984780B2241A8542A4B2E6D0ECE712
:105A20000120F8BD2DE9F8430646884691461F46F9
:105A30001D460024D6F8D00003681B6B9847D0B1F0
:105A4000002D18DBD6F8D00003681B69984760B1B9
:105A5000D6F8D00003685B69984708F80400013461
:105A6000A4B24C4507D03D46ECE70A3D0A202DB2D2
:105A700001F030F9DEE72046BDE8F88370B5044652
:105A800000F1220596220021284604F02DF96168D4
:105A9000284604F059F9D4F8D00022890368294631
:105AA0005E6A0023B047003018BF012070BD10B5FA
:105AB0000446D0F8D00003681B6B984720B1D4F897
:105AC000D0000368DB6A9847012010BD70B50368F9
:105AD0009B6804469847C8B9204600F098FA042508
:105AE00070B1013D15F0FF050AD0204600F0B8F86E
:105AF00041F2883001F0EEF8204600F088FAEFE736
:105B0000236820469B68BDE87040184770BD00F0D0
:105B10008FBB70B5044608460E4604F01DF903120B
:105B20002370607085B202342A463146204604F064
:105B300054F9601970BD000030B50361039B0D4D31
:105B4000028143610C4A056000234160C260C0F8D5
:105B5000BC30C0F8C030C0F8C430C0F8C830C0F89D
:105B6000CC308361C36180F8203080F82130A0F808
:105B7000B83030BD4CC00D009DC00D002DE9F74F71
:105B80000FFA83FA036801929D6901225346064683
:105B90000C46A847C0B2012801D0002034E0651CA3
:105BA00004F1050B80464FF0000933689B69012220
:105BB0001F46294653463046B847C0B20128ECD1AB
:105BC00015F8013B03F07F025D4502FB08994FEA9F
:105BD000C818E2D01B06E8D4019B2C1B1B1B013B01
:105BE0009945336806D9019A9F69013A121B5346B9
:105BF00092B203E09F691FFA89F253462946304664
:105C0000B847C0B2204480B203B0BDE8F08F0000B6
:105C1000F8B505460C4616461F463B4696222146D9
:105C20002846FFF7ABFF48B12378B6EB131F05D02A
:105C300001F0E2F9024900F0D6FFEEE7F8BD00BF3F
:105C40009EC00D000231C9B209299ABF024B53F818
:105C500021000248704700BF68C00D00AFC00D00B2
:105C600010B5E02380F82230002380F82330036849
:105C700004465B69022200F122019847236820460E
:105C80001B69BDE81040184700F1B80230B5134653
:105C900000F1CC0453F8045F8D420FD0A342F9D138
:105CA000002352F8044F24B900EB8300C0F8BC1065
:105CB00004E00133052BF4D1002030BD012030BDBC
:105CC0002DE9F04F00F122098BB287B096224946A8
:105CD0000446FFF753FF064610B394F82570BBB295
:105CE000019304F1260304F1B80A002502935AF83F
:105CF00004BFBBF1000F0ED0DBF800100391084683
:105D000004F02AF8B8428046039904D13A46029832
:105D100004F02AF828B10135052DE8D100204AE029
:105D200049E094F822A00AF0060ABAF1020F3FD126
:105D3000E21992F8267092F8272042EA07271422E7
:105D400000210BF1050003F0CFFF019BC3F57F405D
:105D5000FC30064404EB8505CAEB0606B6B2152EE8
:105D6000D5F8BC0008F1040128BF1326514432467F
:105D70004944053003F09DFFD5F8BC305E8394F8AC
:105D8000223003F00603022B0FD18DF815303B12A1
:105D90008DF8163023688DF8177040228DF8142086
:105DA0005B69042205A920469847D5F8BC0002E0AB
:105DB00007468246C3E707B0BDE8F08F2DE9F843F8
:105DC00004460D464FF000084FF0C00900F12207CD
:105DD000D5B1236884F8229084F823805B6902227D
:105DE000394620469847064610B9013DEDB2EFE727
:105DF0004FF4FA730D2239462046FFF709FF94F855
:105E00002230D02BF1D100E02E463046BDE8F88399
:105E100038B504460846102300F8023B0D462949D0
:105E2000FFF777FE0423037002234370A369ABB12D
:105E30001B789BB10623437094F82030012B01D1CD
:105E40000E2302E0022B01D11E23437094F821306F
:105E5000012B02BF437843F02003437023691B7872
:105E60001BB1437863F07F03437063691B781BB1F8
:105E7000437843F040034370012383702C23C370A5
:105E8000E1680B781BB10430FFF743FE02E00371B9
:105E900043710630A16931B10B7823B1FFF739FEA8
:105EA000E169FFF736FE21690B780BB1FFF731FE90
:105EB00061690B780BB1FFF72CFE401BC0B2831E4B
:105EC0006B7038BDBDC00D002DE9F8430546104686
:105ED0000E4691461F4603F03FFF9DF82480BDF813
:105EE000204080B2B8F1000F01D1831C00E0031DF7
:105EF0004FEA480230469BB242F03002234400F899
:105F0000012B9BB203F07F02DB0918BF42F0800235
:105F100000F8012B002BF5D14946FFF7FAFD0346A7
:105F2000B8F1000F0CD0B5F8B820120A0270B5F81D
:105F3000B8204270B5F8B82001320233A5F8B82075
:105F400022463946184603F0B4FE2044801B80B236
:105F5000BDE8F88373B59DF8186000F1220504468A
:105F60008DE8480013460A462946FFF7ADFF23682F
:105F700002465B6929462046984708B9002017E089
:105F8000B6B14FF4FA73962229462046FFF7F6FD84
:105F90000428F3D194F822301B11042BEED1A38CEA
:105FA000B4F8B8005BBA01339BB2C31A58425841E7
:105FB00002B070BDF7B5054610461F460E461446A2
:105FC00003F0CAFE009783B2224631462846FFF707
:105FD000C1FF03B0F0BD38B51D4682230B700C46DF
:105FE000B0F8B810090AA170B0F8B830E370B0F892
:105FF000B8100131A0F8B8101146201DFFF789FD37
:1060000000F8015B001BC0B2831E637038BD2DE930
:10601000F0410368DB680446984718B94FF0FF3039
:10602000BDE8F08104F1220529462046FFF7F0FE85
:10603000236882B25B692946204698470028EDD044
:1060400041F27073962229462046FFF797FDC0B2B1
:106050000428E3D1638CB3F5087FDFD194F82500E1
:1060600010B140B2BDE8F08104F1B80704F1CC08EA
:1060700057F8043FFBB103263A68294613791268A2
:106080002046FFF7A8FF236882B25B6929462046B5
:1060900098470028C2D04FF4FA73092229462046B7
:1060A000FFF7B6FD38B9013E16F0FF06E4D16FF0F8
:1060B0000100BDE8F0814745DAD10020BDE8F0815C
:1060C00010B580E80600037210BD1FB504460A2211
:1060D000084601A900F0F2FC237A01AA94E8030023
:1060E000FFF768FF04B010BDFFF7EFBF10B592B027
:1060F00004460B4600220B4902A88DED000B00F070
:106100002BFB9DED000B02A953EC102B07A800F010
:1061100023FB237A07AA94E80300FFF74BFF12B092
:1061200010BD00BFC2C00D0010B503710023416354
:1061300002604383C361436203628362C362036399
:1061400010BD00F075B80022016002614261704725
:1061500010B50446008801F058FD40F21233A0F15A
:106160000B029A4207D8A0606060E06000F010F96E
:10617000A061012010BD002010BD806870470000A4
:1061800010B5044600F004F9A369C01A074B984201
:106190000AD92369626993FBF2F3E36000F0F8F82F
:1061A0000023A0612361636110BD00BF20A107002F
:1061B00010B5836843600446008801F026FD23691A
:1061C000A060184463692061013363612046FFF7D2
:1061D000D7FFA2686168511AB1F5C87F10DCB2F52B
:1061E0002F7F0DDCE368D31A962B0BDCC82902DD68
:1061F000B2F52F7F08D1322BCCBF0220032010BD77
:10620000002010BD012010BD022010BD00F010B80C
:1062100008B5024B1B689B68019308BD6802030028
:1062200008B5024B1B68DB68019308BD68020300D8
:1062300008B5024B1B681B68019308BD2C020300C4
:1062400008B5024B1B685B68019308BD2C02030074
:1062500008B5024B1B689B68019308BD2C02030024
:1062600008B5024B1B68DB68019308BD2C020300D4
:1062700008B5024B1B681B69019308BD2C02030083
:1062800008B5024B1B685B69019308BD2C02030033
:1062900008B5024B1B681B6B019308BD2C02030061
:1062A00008B5024B1B68DB6C019308BD2C02030090
:1062B00008B5024B1B681B68019308BD3002030040
:1062C00008B5024B1B689B68019308BD30020300B0
:1062D00008B5024B1B68DB68019308BD3002030060
:1062E00008B5024B1B681B69019308BD300203000F
:1062F00008B5024B1B685B69019308BD30020300BF
:1063000008B5024B1B68DB69019308BD300203002E
:1063100008B5024B1B681B6A019308BD30020300DD
:1063200008B5024B1B685B6A019308BD300203008D
:1063300008B5024B1B68DB6B019308BD30020300FC
:1063400008B5024B1B681B6C019308BD30020300AB
:1063500008B5024B1B685B6C019308BD300203005B
:1063600008B5024B1B685B69019308BD6C02030012
:1063700008B5024B1B685B68019308BD1802030057
:1063800008B5024B1B68DB68019308BD18020300C7
:1063900008B5024B1B685B69019308BD1802030036
:1063A00008B5024B1B689B68019308BD48020300B7
:1063B00008B5024B1B681B69019308BD4802030026
:1063C00008B5024B1B685B69019308BD48020300D6
:1063D00008B5024B1B685B6C019308BD48020300C3
:1063E00008B5024B1B689B6C019308BD4802030073
:1063F00008B5024B1B685B69019308BD640203008A
:1064000008B5024B1B681B6A019308BD64020300B8
:1064100008B5024B1B689B6A019308BD6402030028
:1064200008B5024B1B681B68019308BD3C020300C2
:1064300008B5024B1B68DB68019308BD3C020300F2
:1064400008B5024B1B681B69019308BD3C020300A1
:1064500008B5024B1B685B69019308BD3C02030051
:1064600008B5024B1B689B69019308BD3C02030001
:1064700008B5024B1B68DB69019308BD3C020300B1
:1064800008B5024B1B681B6A019308BD3C02030060
:1064900008B5024B1B689B6A019308BD3C020300D0
:1064A00008B5024B1B68DB68019308BD2802030096
:1064B00008B5024B1B689B69019308BD28020300C5
:1064C00008B5024B1B68DB69019308BD2802030075
:1064D00008B5024B1B681B6A019308BD2802030024
:1064E00008B5024B1B685B6A019308BD28020300D4
:1064F00008B5024B1B689B6A019308BD2802030084
:1065000008B5024B1B68DB6A019308BD2802030033
:1065100008B5024B1B681B6B019308BD28020300E2
:1065200008B5024B1B685B6B019308BD2802030092
:1065300008B5024B1B681B6C019308BD28020300C1
:1065400008B5024B1B681B6D019308BD28020300B0
:1065500008B5024B1B689B69019308BD3802030014
:1065600008B5024B1B68DB69019308BD38020300C4
:1065700008B5024B1B681B6A019308BD3802030073
:1065800008B5024B1B689B6A019308BD38020300E3
:1065900008B5024B1B681B6B019308BD3802030052
:1065A00008B5024B1B689B6B019308BD38020300C2
:1065B00008B5024B1B681B68019308BD4C02030021
:1065C00008B5024B1B685B68019308BD4C020300D1
:1065D00008B5024B1B681B69019308BD4C02030000
:1065E00008B5024B1B685B69019308BD4C020300B0
:1065F00008B5024B1B689B69019308BD4C02030060
:1066000008B5024B1B68DB69019308BD4C0203000F
:1066100008B5024B1B681B6A019308BD4C020300BE
:1066200008B5024B1B685B6B019308BD6002030059
:1066300008B5024B1B681B6D019308BD6002030087
:1066400008B5024B1B685B68019308BD200203007C
:1066500008B5024B1B685B69019308BD200203006B
:1066600008B5034B1B68D3F88830019308BD0000C0
:106670002002030008B5034B1B68D3F89430019344
:1066800008BD00002002030008B5024B1B685B68D0
:10669000019308BD4002030008B5024B1B689B68CC
:1066A000019308BD4002030008B5024B1B68DB687C
:1066B000019308BD4002030008B5024B1B681B692B
:1066C000019308BD4002030008B5024B1B685B69DB
:1066D000019308BD4002030008B5024B1B689B698B
:1066E000019308BD4002030008B5024B1B68DB693B
:1066F000019308BD4002030008B5024B1B681B6AEA
:10670000019308BD4002030008B5024B1B681B6BD8
:10671000019308BD4002030008B5024B1B685B6B88
:10672000019308BD4002030008B5024B1B68DB6BF8
:10673000019308BD4402030008B5024B1B681B68A7
:10674000019308BD1C02030008B5024B1B685B687F
:10675000019308BD1C02030008B5024B1B68DB68EF
:10676000019308BD1C02030008B5024B1B685B6A5D
:10677000019308BD1C02030008B5024B1B681B6B8C
:10678000019308BD1C02030008B5024B1B68DB6BBC
:10679000019308BD1C020300002211464068FFF768
:1067A000ABBF002211464068FFF7B6BF0022406829
:1067B000FFF7AABF002281F001014068FFF794BFF4
:1067C00000231A4619464068FFF786BF00231A4681
:1067D00019464068FFF778BF002211464068FFF76E
:1067E0006BBF002211464068FFF756BF002202210E
:1067F0004068FFF759BF00231A464068FFF744BFBF
:10680000024B03225A60024A1A607047DCE30320FD
:106810009CC20D000021FFF793BD0021FFF798BD3A
:1068200010B5044601700846FFF76AFD0023636057
:10683000204610BD10B504460078FFF7EBFF48B9BD
:1068400020784FF6FF71FFF733FD2078BDE8104048
:10685000FFF7E3BF10BD38B5044600780D46FFF7DB
:10686000D9FF40B920782946FFF72AFD2078BDE8F6
:106870003840FFF7D2BF38BD38B5044600780D4622
:10688000FFF7C8FF40B920782946FFF721FD20789F
:10689000BDE83840FFF7C1BF38BD0078FFF7BDBF86
:1068A000400830B51860002418688842E5B206D95F
:1068B0000134082C02D040081860F5E70725024B88
:1068C0005B5D137030BD00BFC8C20D002DE9F04301
:1068D00007468FB000780E46FFF79CFF002862DB6A
:1068E0003C781422002109A803F0FEF90B2320466E
:1068F000002209A9ADF82430FFF712FD9DF82D40C4
:1069000054B19DF82C5035B9DDF830809DF83490A5
:106910009DF8354003E00024A146A04601253379C7
:1069200005B1BBB99D420BD1B268424508D18DF883
:1069300020908DF82140BDF82010B289914209D0F5
:1069400053B1002438780194009423462246012153
:10695000FFF7EEFC002026E08DF80F30B1680A98B2
:1069600004AB0DF10F02FFF79BFF317905B1B1B90F
:10697000A94208D0002438780194747B337B9DF8B9
:106980000F200094E4E7B3684345F3D38DF82090DB
:106990008DF82140BDF82020B3899A42EAD1049BAA
:1069A0004345E7D1D6E70FB0BDE8F0832DE9F041CC
:1069B00088B000230446007802930E461746FFF77E
:1069C00029FF054600BB94F800800146142203A865
:1069D00003F08AF90B232A4603A94046ADF80C3090
:1069E000FFF79EFC02AB0DF1070207FB06F10498CE
:1069F0008DF80750FFF754FF20789DF80710FFF738
:106A00006FFC2078FFF709FF029808B0BDE8F0811D
:106A100038B5044600780D46FFF7FCFEC8B961683A
:106A200071B10C4BC25CAA4202D001300828F9D1E6
:106A30000130C0B2C14001222046FFF7B7FF03E09A
:106A400029462078FFF74CFC2078BDE83840FFF756
:106A5000E4BE38BDC8C20D0008B50078FFF748FC99
:106A6000C0B208BD0078FFF753BC10B504460068FB
:106A700018B1FFF769FE0023236010BD10B504466E
:106A8000FFF7F3FF204610BD10B5094C00204FF66C
:106A9000FF732060A080A07120816381FFF7D0FD8B
:106AA0002046044A0449BDE8104001F02BB900BF5C
:106AB000E4E30320B8E103207D6A0D002DE9F041F5
:106AC000931E232B15468CB034BF15460A25002390
:106AD0000A2D0C468DF82C3007D1984205DA2D236B
:106AE00001F101080B70404201E0B0B1A0460DF188
:106AF0002B0601272A46014601A803F0B7F8029B9E
:106B00000198092BCCBF3722302252FA83F306F8C2
:106B1000013901370028EDD106E030238DF82B3004
:106B2000A0460DF12A0602273A46711C404603F0A2
:106B3000B5F820460CB0BDE8F08110B504460068F9
:106B400008B1FFF74DFC204610BD000010B5064C03
:106B5000002320462360FFF73BFC2046034A0449FC
:106B6000BDE8104001F0CEB8F0E30320B8E1032007
:106B70003B6B0D00F8B506460D468F180024BD424C
:106B80000CD0336815F8011B9B68304698470028E5
:106B900001DB0444F3E7002C08BF04462046F8BD9F
:106BA00070B505460C46084649B103F0D5F82B6888
:106BB000024621462846DB68BDE87040184770BD94
:106BC00008B5FFF7EDFF08BD03689B68184738B5A7
:106BD0000D210546FFF7F8FF0A2104462846FFF776
:106BE000F3FF204438BD38B50546FFF7D9FF04460A
:106BF0002846FFF7ECFF204438BD30B58BB00B467C
:106C000000218DF82410012A98BF0A220DF12304D7
:106C1000B3FBF2F505FB123303F0FF03092B94BF1E
:106C200030333733DBB2214604F801392B46002DCF
:106C3000EED1FFF7B5FF0BB030BD0CB42DE9F0433A
:106C400087B000AF07F13804054654F8049B3C6058
:106C50000E4623464A461421381DFFF785FD1328AA
:106C600005D8391D2846FFF79BFF044613E000F1C5
:106C7000080323F00703E846ADEB030D411C234650
:106C80004A4668463C60FFF76FFD69462846FFF7B5
:106C900087FF0446C5461EB12846FFF798FF044407
:106CA00020461C37BD46BDE8F04302B070470000E7
:106CB000014B024A1A607047F4E3032043C30D00FE
:106CC000024B1A68024B1A60704700BF10E10320A4
:106CD000F8E303200021FFF7BBBC10B5836804462E
:106CE00013B1032201469847204610BD10B5044653
:106CF000FFF7F3FF204610BD0348044A0449002370
:106D0000836000F0FFBF00BFFCE30320B8E1032075
:106D1000ED6C0D0008B50C4B33B100F06DF9036854
:106D20001B699847002809DC084B63B100F0E6F9BD
:106D300003681B699847002803DC08BDAFF3008097
:106D4000F2E7AFF3008008BD000000000000000083
:106D500008B5FFF7DFFFFFF71BFB014B186008BD0D
:106D600030E703200248034A0349121A02F096BF93
:106D700000F4032004F40320C0C80D0007B500236D
:106D800000931A466FF07701FFF774FC03B05DF8CB
:106D900004FB000007B543880A2B08D0502B09D10B
:106DA000094B1B683BB103B05DF804EB1847FFF7D4
:106DB000E5FF06E0002300931A466FF07701FFF726
:106DC00059FC03B05DF804FB0CE4032038B5104C0B
:106DD000104D2368AB42104B0CBF012200221A70E9
:106DE00002D0FFF7BFFF2560FFF7C2FA044602F0AA
:106DF00083FF0A4B13B12046AFF300800021074800
:106E0000FFF792FC00210648BDE83840FFF728BC98
:106E100000F403201E1C279A10E403200000000049
:106E2000956D0D00704710B51821044600F078FFED
:106E3000204610BDF0B5037D062B8DB00E4600F147
:106E400004074FF0000402D000F1080518E00CAD73
:106E5000394605F8304D2F232A460A20FFF7C8FA95
:106E6000284602F079FF33680246DB68294630463F
:106E700098470FE024B12E213046FFF7A5FE0444C9
:106E800015F8011D0A223046FFF7B7FEBD42044443
:106E9000F0D120460DB0F0BD10B5054B04461122CF
:106EA00040F8043B002102F01FFF204610BD00BF48
:106EB000D4C30D000346074A10B543F8042B01F173
:106EC000100251F8044B43F8044B9142F9D10A786F
:106ED0001A7010BDD4C30D00037D042B01D140688E
:106EE00008E0062B0AD1436853B9836843B9C368E5
:106EF00033B90069003018BF012070470020704787
:106F00000120704710B59DF8084044EA032343EA86
:106F1000024242EA016104234160037510BD37B5A6
:106F20000D788B784A78C97800912946FFF7EAFFF7
:106F300003B030BD41747047704708B50021007C34
:106F4000FFF756FB30EA200028BF4FF0FF3008BDA6
:106F500008B50121007CFFF74BFB30EA200028BF79
:106F60004FF0FF3008BD08B5007CFFF739FB20EA81
:106F7000E07008BD08B5007CFFF72AFB20EAE0704E
:106F800008BD007CFFF744BB10B51421044600F097
:106F9000C7FE204610BD38B50446007C0D46FFF7FD
:106FA0001FFB002801DC607C28B12946207CFFF70C
:106FB00027FB20EAE07038BD10B50446002363606B
:106FC0004FF47A73A360054B2360012308462174B4
:106FD00063741146FFF7ECFA204610BDE8C30D00BC
:106FE0000022007CFFF7ECBA10B514220446002101
:106FF00002F07AFE204610BD30B50E4D87B001A8D4
:10700000FFF7F2FF296811F0010410D12846FDF7BF
:1070100055F860B101AA21460748FFF7CDFF284681
:10702000FDF751F8054A0649034800F06BFE024897
:1070300007B030BD14E4032018E40320B8E10320B6
:10704000396F0D0070474174704708B5007CFFF739
:107050001FFA20EAE07008BD08B5007CFFF7F0F9E0
:1070600020EAE07008BD08B5007CFFF7F9F930EAC6
:10707000200028BF4FF0FF3008BD08B5007CFFF7A7
:10708000E7F930EA200028BF4FF0FF3008BD007C50
:10709000FFF7EEB910B51421044600F041FE20467A
:1070A00010BD70B5457C04460E4625B9007CFFF73F
:1070B000EFF9002805DD3146207CBDE87040FFF780
:1070C000B7B9284670BD000010B504460846114601
:1070D000002262604FF47A72A260054A22600122A7
:1070E000207462741A46FFF79BF9204610BD00BF5A
:1070F00018C40D00007CFFF7C3B9000038B50C4D73
:10710000296811F0010411D12846FCF7D7FF68B1B6
:10711000084A094B09482146FFF7D6FF2846FCF7E5
:10712000D2FF074A0749054800F0ECFD034838BD87
:10713000C4E40320C8E4032040E403202CE403203B
:10714000B8E1032045700D007047F8B506461546B6
:107150000C468F18BC4206D0336814F8011B9B689C
:1071600030469847F6E72846F8BD0022007CFFF736
:10717000AFB90021007CFFF7B3B90021007CFFF715
:10718000B7B90021007CFFF7BBB90021007CFFF7F5
:10719000BFB910B51421044600F0C2FD204610BD51
:1071A00010B50446002363604FF47A73A360044B68
:1071B0002174084623601146FFF7BAF9204610BD36
:1071C00048C40D0000231A461946007CFFF768B931
:1071D00070B50C4686B0142506462A46002101A843
:1071E00002F082FD23788DF8083063680393E3682A
:1071F00004930022237A307CADF8045001A9059352
:10720000FFF79EF906B070BD1FB500338DF8001072
:107210004FF06401039118BF0123694601928DF874
:107220000830FFF7D5FF05B05DF804FB0123FFF739
:10723000EBBF0022007CFFF73BB9C9B2FFF7F9BFF3
:107240000022007CFFF73CB90121FFF7F9BF0021C4
:10725000007CFFF765B9002211464068FFF74CBA81
:10726000002211464068FFF757BA00224068FFF736
:107270004BBA002281F001014068FFF735BA0023C4
:107280001A4601214068FFF727BA00231A4619461B
:107290004068FFF719BA002211464068FFF70CBAA0
:1072A000002211464068FFF7F7B90022022140682A
:1072B000FFF7FAB900231A464068FFF7E5B938B579
:1072C000054688B104684CB1A3681BB1032221466E
:1072D000204698471021204600F022FD2846142120
:1072E000BDE8384000F01CBD38BD10B103685B68D4
:1072F0001847704710B503680446BBB15868FFF7DC
:107300004FF878B923685A7C12B95868FFF750F8DB
:1073100023685868FFF754F820680023236028B1D9
:10732000FFF7CDFF206808B1FFF7C9FF204610BD69
:1073300038B50446D0F8C40108B1FCF7B2FED4F861
:10734000C00108B1FFF74CF8D4F8BC5135B128465C
:10735000FFF7D0FF0421284600F0E2FC206808B1C6
:10736000FFF7C3FF204638BD10B5044B044640F874
:10737000083BFFF7DDFF204610BD00BF70C40D00C5
:1073800038B50E4C0E4B23600025022304F5E47043
:107390006360A560C4F8C451C4F8C851FFF718F879
:1073A000084BC4F8CC5184F8D05123602046064ADB
:1073B0000649BDE8384000F0A5BC00BF4CE50320FD
:1073C00058C50D0070C40D00B8E1032069730D00AD
:1073D00037B502AC036804F8011DDD6B01224FF0E4
:1073E000FF332146A84703B030BD10B40368DC6BFF
:1073F0004FF0FF33A4465DF8044B604737B502AC4D
:10740000036804F8011DDD6B214613460122A847DD
:1074100003B030BD704738B543691A68002A044686
:1074200005DAB3F88620B3F884309A4201D00125FA
:107430000BE003681B699847002814BF012500254D
:1074400003D123682046DB6A9847284638BD436944
:107450001868C043C00F704770470020704710B5D0
:107460001421044600F05CFC204610BDFCF717BE5A
:107470007FB5164600224260029203925A1C0446CF
:107480000D4608D04FF47A72B3FBF2F1029102FB81
:1074900011314A43039260690823009341F20502C7
:1074A0006B4440F6FF710068FFF752F8002808DBD4
:1074B00060690023324629460068FFF769F8002812
:1074C00004DAFFF761F903686360002004B070BD5F
:1074D00010B5036804469B689847A368013BA36006
:1074E0002BB923682046DB68BDE81040184710BD63
:1074F00070B504464D69054B44F8043B8C3506468F
:107500000FCD0FC42B682370304670BDD4C30D005F
:1075100010B54369B3F88620B3F884309A42044624
:1075200005D06269B2F884301344187910BD03683D
:107530001B6998470028F4D14FF0FF3010BD10B5FB
:107540004369B3F88620B3F884309A42044608D0E1
:107550006269B2F88430591C1344A2F88410187977
:1075600010BD03681B6998470028F1D14FF0FF3028
:1075700010BDF8B543691746B3F88620B3F88430D8
:107580009A4205460E4606D103681B69984710B912
:107590004FF0FF3414E06969B1F88430B1F88640E7
:1075A000E41ABC4228BF3C46194422460431304606
:1075B00002F074FB6A69B2F884302344A2F8843084
:1075C0002046F8BD2DE9F0439846036893B0DB6A86
:1075D0000D4606461746984712AB002443F8484D1F
:1075E000224621462846FEF71BFE814600283DD153
:1075F000009B002B56D05B69002B53D006A8FFF7E9
:107600004BFC009B5C696378022B01D1211D13E0C8
:107610000A2B14D11122494601A802F065FBA36888
:1076200033BBE36823BB4FF6FF702569FEF7E8FE26
:1076300085421DD104F1140106A8FFF770FC06A8CD
:10764000FFF74AFC00282DD0336807ADD3F820900F
:10765000184B0C930FCD0DAC0FC42B6823703A461A
:1076600043460CA93046C84781461BE0A14619E0B5
:1076700004F1080301AD1834186859682A4603C29A
:107680000833A3421546F7D1062301A90CA80DAD76
:107690008DF81430FFF70EFC0FCD07AC0FC42B682C
:1076A0002370CCE70098FEF7B3FD484613B0BDE861
:1076B000F08300BFD4C30D0042690023A2F88430D8
:1076C0004269A2F8863070472DE9F0411E460368F2
:1076D0000C468AB0DB6A054617469847237DD5F8E5
:1076E0001480042B0CBF02200A2006220121FEF781
:1076F00057FFC8F800006B691B68002B18DB284691
:10770000FFF7DAFFD6B1002303A9F0B20393ADF877
:107710001030FEF725FE58B968690623009341F240
:107720000B0203AB40F6FF710068FEF711FF28B1B2
:107730002B682846DB6A002498473BE01C2632462B
:10774000002103A802F0D0FA237D8DF80C60042BF1
:107750000CD1022338468DF80D30FEF759FEADF8F6
:107760000E006068FEF74CFE049013E00A233846D2
:107770008DF80D30FEF74CFE05AEADF80E00231D62
:1077800004F1140718685968324603C20833BB4233
:107790001646F7D16B691C2203A91868FEF7E8FEAC
:1077A0000028C5D104340FCC6D698C350FC5236812
:1077B0002B70012420460AB0BDE8F08110B5436962
:1077C00004461868002801DBFEF7CAFE63694FF023
:1077D000FF321A606069112200218C3002F084FAB5
:1077E0002046BDE81040FFF767BF000030B5426992
:1077F000B2F886308BB004461BB1B2F884209A42AE
:1078000040D06369186800283FDBB3F886507F2DAD
:107810003BD8191DC5F1800208232944FEF7B0FEAC
:1078200000280CDD6369B3F886200AB9A3F8842028
:107830006269B2F886301844A2F8860025E0FEF7A7
:10784000A3FF03680B2B20D0FEF79EFF03680B2BD2
:107850001BD02023002502930395FEF795FF0368B4
:1078600001930E4B009302AA2B460D493220FEF7DE
:10787000DFFE63691868FEF773FE63694FF0FF323D
:107880001A6002E0FFF718FFBBE76269B2F88630C2
:10789000B2F88400181A0BB030BD00BF0BC50D0044
:1078A00004C50D0010B5002304460160A0F8843023
:1078B000A0F886308830FFF7EFFA204610BD0000B0
:1078C0004FF47A7270B500238260144A43600260FC
:1078D000436183610446A0200E46FCF7DEFB0546AB
:1078E00010B13146FFF7DEFF1420FCF7D6FB03464C
:1078F00028B1012242608260094A02600561A069E4
:107900006561A36128B14368013B43600BB9FFF790
:10791000DFFD2046FFF7D0FE204670BDC0C40D003D
:10792000A4C40D0010B54FF0FF310446FFF7C8FFA7
:10793000204610BD10B504460068002801DBFEF7A4
:107940000FFE204610BD10B504692046FFF7F2FF78
:1079500024B12046BDE81040FCF7A1BB10BD0022B9
:1079600011464068FEF7A8BE002211464068FEF7A7
:10797000C3BE002211464068FEF7CEBE002240681A
:10798000FEF7C2BE002281F001014068FEF7ACBEE6
:1079900000231A4619464068FEF79EBE00231A4689
:1079A00019464068FEF790BE002211464068FEF777
:1079B00073BE002202214068FEF776BE00231A46FD
:1079C0004068FEF761BE0000024B04225A60024A82
:1079D0001A60704720E7032024C50D0000231A46D3
:1079E0004068FEF751BE002202214068FEF75CBEEF
:1079F000002211464068FEF74FBE00221146406843
:107A0000FEF75ABE00231A4619464068FEF75CBED0
:107A100000231A4619464068FEF75EBE002281F038
:107A200001014068FEF760BE00224068FEF76CBEB0
:107A3000002211464068FEF76FBE002211464068E2
:107A4000FEF75ABE2DE9F043002495B016460D46C8
:107A50000746FFF721FA214620220CA8009402F0E5
:107A600043F940230C9321466B460CAA3046FEF79F
:107A7000D7FB0446002844D1024601216868FEF77E
:107A80001BFE0221804622466868FEF715FE009E16
:107A900081462146002E34D0002932D17368022B52
:107AA00002D00A2B09D02AE0B8F1000F27D0716963
:107AB00038460431FFF733FA20E0B9F1000F1ED049
:107AC0007469112201A802F00FF906238DF8143011
:107AD00001AD04F108031834186859682A4603C236
:107AE0000833A3421546F7D101A906A807ADFFF751
:107AF000E1F90FCD3C1D0FC42B6823700121F669FD
:107B0000C8E70098FEF784FB384615B0BDE8F0835F
:107B1000024B034A1A6000225A60704728E703208C
:107B200058C50D0070B5184E316811F001050446B6
:107B30000AD13046FCF7C2FA30B129461348FEF7A5
:107B40006FFE3046FCF7BFFA1048FEF78BFF28B1F6
:107B5000A4F10B03022B01D8002070BD00F0ACF89B
:107B6000FFF775FB08B1012CF6D9FFF7C7FAFFF74D
:107B7000C1FA18B1A4F10903012BEDD9232C8CBF54
:107B80000020012070BD00BFD0E30320D4E3032018
:107B9000232838B504460D460AD8FF2908D0FFF738
:107BA000C1FF28B129462046BDE83840FEF750BB4A
:107BB00038BD38B504460D46FEF752FBFF2810D0FD
:107BC000062804D84D2323FA00F0C30709D4204621
:107BD000FFF7A8FF28B129462046BDE83840FEF748
:107BE00047BB38BD10B50446FEF73AFB0438C0B2B7
:107BF000012808D92046FFF795FF20B12046BDE8AF
:107C00001040FEF73DBB002010BD0D2810B5044606
:107C10009CBF0E34A4B22046FFF784FF50B103216D
:107C20002046FEF70DFB032804D12046BDE8104096
:107C3000FEF72EBB002010BD2DE9F04190461E46F8
:107C4000072407460D46B8F1000F04D1C4F107011F
:107C500046FA01F101E046FA04F101F0010138466B
:107C6000FFF7A7FF01212846FFF7A3FF00212846C1
:107C7000FFF79FFF14F1FF34E5D2BDE8F081FEF776
:107C80000FBB000070B5044614252A46094E00219A
:107C900002F02AF8258020253146A5602561284676
:107CA00000F040F831466060284600F03BF8E060A4
:107CB000204670BD84C50D0030B50E4D296811F009
:107CC000010487B013D12846FCF7F8F978B101A870
:107CD000FFF7D8FF01AA21460748FFF761FA2846B7
:107CE000FCF7F1F9054A0649034800F00BF8024891
:107CF00007B030BD34E7032038E70320B8E10320A4
:107D000049710D000B460146184601F0A1BF000065
:107D1000024B1868BFF35F8F704700BF4CE703202A
:107D2000FCF7BDB900F000B810B5002814BF044638
:107D300001242046FEF700FD20B9FFF7E9FF08B156
:107D40008047F6E710BD0000184B1A68D1075CBFEA
:107D500001221A60164B1A68D2075CBF01221A6012
:107D6000144B1A68D0075CBF01221A60124B1A68C4
:107D7000D1075CBF01221A60104B1A68D2075CBFA2
:107D800001221A600E4B1A68D0075CBF01221A60EC
:107D90000C4B1A68D1075CBF01221A600A4B1A68A3
:107DA000D2075CBF01221A60704700BF6CE7032056
:107DB00068E7032064E7032060E703205CE7032013
:107DC00058E7032054E7032050E70320244B1A68A8
:107DD000D0075CBF01221A60224B1A68D1075CBF32
:107DE00001221A60204B1A68D2075CBF01221A6078
:107DF0001E4B1A68D0075CBF01221A601C4B1A6820
:107E0000D1075CBF01221A601A4B1A68D2075CBF07
:107E100001221A60184B1A68D0075CBF01221A6051
:107E2000164B1A68D1075CBF01221A60144B1A68FE
:107E3000D2075CBF01221A60124B1A68D0075CBFE0
:107E400001221A60104B1A68D1075CBF01221A6028
:107E50000E4B1A68D2075CBF01221A60704700BF40
:107E60009CE7032098E7032094E7032090E7032092
:107E70008CE7032088E7032084E7032080E70320C2
:107E80007CE7032078E7032074E7032070E70320F2
:107E9000244B1A68D0075CBF01221A60224B1A6873
:107EA000D1075CBF01221A60204B1A68D2075CBF61
:107EB00001221A601E4B1A68D0075CBF01221A60AB
:107EC0001C4B1A68D1075CBF01221A601A4B1A6852
:107ED000D2075CBF01221A60184B1A68D0075CBF3A
:107EE00001221A60164B1A68D1075CBF01221A6082
:107EF000144B1A68D2075CBF01221A60124B1A6831
:107F0000D0075CBF01221A60104B1A68D1075CBF12
:107F100001221A600E4B1A68D2075CBF01221A6058
:107F2000704700BFCCE70320C8E70320C4E7032065
:107F3000C0E70320BCE70320B8E70320B4E7032031
:107F4000B0E70320ACE70320A8E70320A4E7032061
:107F5000A0E70320184B1A68D1075CBF01221A6002
:107F6000164B1A68D2075CBF01221A60144B1A68BC
:107F7000D0075CBF01221A60124B1A68D1075CBFA0
:107F800001221A60104B1A68D2075CBF01221A60E6
:107F90000E4B1A68D0075CBF01221A600C4B1A689E
:107FA000D1075CBF01221A600A4B1A68D2075CBF76
:107FB00001221A60704700BFECE70320E8E70320C6
:107FC000E4E70320E0E70320DCE70320D8E7032011
:107FD000D4E70320D0E703202DE9F04F2DED028BED
:107FE000DFF824A38BB057EC106B55EC114B00F06D
:107FF0008FF99AF90080B0EE408AF0EE608AB8F10D
:10800000FF3F48D022462B462046294601F06EFD10
:10801000834600283FD132463B463046394601F080
:1080200065FD8146002840F09080304639460022A8
:10803000002301F029FD002836D00022002320462D
:10804000294601F021FD8346B8B19FEDA57B0122B1
:10805000A94BCDF820900092CDE90267CDE9044507
:108060008DED067B0193B8F1000F5BD09FED9E0B69
:108070000BB0BDEC028BBDE8F08F45EC104B00F06F
:10808000A7FF40B1002200232046294601F006FD4B
:10809000002840F0C580B0EE480AF0EE680A0BB048
:1080A000BDEC028BBDE8F08FB0EE480AF0EE680A36
:1080B00000F08EFF8046002861D04FF000084FF09E
:1080C000000951EC180B42464B4601F0DDFC00283C
:1080D000E1D047EC106B00F07BFF0028DBD045ECD3
:1080E000104B00F075FF0028D5D09AF90030824A75
:1080F000019204210022022BCDE90267CDE904455B
:10810000CDE906890091089203D0684600F068FF27
:1081100070B9FEF739FB2223036009E09FED707B05
:108120008DED067B684600F05BFF002800F08E8036
:10813000089B1BB1FEF728FB089B03609DED060B17
:108140000BB0BDEC028BBDE8F08F0022002320466F
:10815000294601F099FC00289DD09FED630B664BEA
:10816000CDF820B00122B8F1020FCDE90267CDE9C8
:1081700004458DED060B8DE80C00D3D18FE747EC5D
:10818000106B00F025FF002897D045EC104B00F055
:108190001FFF002891D053EC182B18EE100A194637
:1081A00001F0A4FC00287CD103239AF900800093FD
:1081B000514B0890CDE90267CDE904450193B8F130
:1081C000000F48D1DFF844914FF0604800220023AF
:1081D00030463946CDE9068901F060FC002894D08C
:1081E0000022464B2046294601F0E6F904460D469A
:1081F00045EC104B00F000FF204653EC102B2946B5
:1082000001F042FC002849D13D4B9AF900804FF023
:108210006042CDE90623B8F1020F7FF476AF78E72C
:10822000354A9AF90030CDF820B00121CDE9026736
:10823000CDE904458DE80600002B3FF46FAF3149CE
:108240000020022BCDE906017FF46CAFFEF79CFA0B
:10825000212303606CE79FED267B0022002330463C
:1082600039468DED067B01F019FC0028D3D00022A1
:10827000224B2046294601F09FF904460D4645EC65
:10828000104B00F0B9FE204653EC102B294601F0AC
:10829000FBFB18B91B4B0022CDE906239AF900809D
:1082A000B9E7154B9AF90090CDF820800122CDE96D
:1082B0000267CDE904458DE80C00B9F1000F3FF4E9
:1082C0002DAF002200231046194601F09FFAB9F1A4
:1082D000020FCDE90601B9D024E700BFAFF300805B
:1082E0000000000000000000000000000000F03F5F
:1082F000000000000000F07F88C50D000000E03F96
:10830000FFFFEFC70000F0FF14E10320FFFFEF477E
:108310002DE9F04F51EC110B21F0004858EA000410
:1083200093B03CD053EC102B6D4E23F00044B4427C
:1083300010EE10AA1D462BDC894611EE10EA26D05D
:10834000B04525DC664EB04577D0002D16461F4659
:10835000CDE9000175DB4FF0000BBEF1000F2DD110
:108360005F4B984500F089805E4B98455ED0B9F12F
:10837000804F00F0DE835C4B99451FD1002D1DDB43
:1083800047EC106B13B0BDE8F04F00F049BD5AB197
:1083900004F1404404F5801454EA0A0306D19FED29
:1083A0004A0B13B0BDE8F08FA045CBDD4F4813B0AA
:1083B000BDE8F04F00F018BE4FF0000B47EC106B1B
:1083C00000F0FEFD51EC100BBAF1000F1ED0ED0FC6
:1083D00005F1FF3A5BEA0A0363D0454B984540F349
:1083E0008D8003F10473984540F33884414B9C42DF
:1083F00062DDB9F1000F62DD35A3D3E90023104639
:10840000194601F0D9F841EC100BCAE724B1354BFD
:1084100025F040429A42DAD1B9F1000FC0F2CB8385
:10842000002DC0F2748341EC100BBAE7B9F1000FD4
:10843000C0F27A8447EC106BB3E7BEF1000F84D032
:10844000A6E72D4B984529DCA3F15473984582DDAE
:108450004FEA2853A3F2FF33142B40F37F84C3F178
:1084600034032EFA03F202FA03F39E457FF473AF4E
:1084700002F00102C2F1020B6FE704F1404303F581
:10848000801353EA0A038AD01A4B9C4240F3858337
:10849000B9F1000F13DB9DED000B82E74FF0020BEB
:1084A0005BE732463B461046194600F0D1FE0246D5
:1084B0000B4601F0ABF9B6E7B9F1000F9CDB9FED7D
:1084C000060B6EE7AFF30080000000000000F03FF5
:1084D0009C7500883CE4377E00000000000000002E
:1084E0000000F07F0000F03F0000E03F8CC50D0071
:1084F0000000E041FFFFEF3FFFFF3F43B4F5801F67
:108500004FF0000205DAD64B01F056F86FF0340256
:108510000C462315D34EC4F31304A3F2FF331344C4
:1085200044F07F55B4421A460D9345F4401540F38C
:108530004983CD4B9C4240F32D849FEDB37B8DED61
:10854000087B8DED0E7B9FEDB27B13468DED067B98
:1085500001330D93A5F580154FF00008DDE90623E2
:108560002946CDE90A0100F073FEDDE9062306463F
:108570000F46DDE90A0100F06DFE02460B460020C1
:10858000BA4901F043F903460C46CDE910340246DE
:108590000B463046394601F00FF86B1043F000539C
:1085A00003F5002303EB08050A4600230146CDE945
:1085B00002120293DDE902890024CDE904122B4660
:1085C00022464046494600F0F7FF02460B46304639
:1085D000394600F03DFEDDE9062306460F462046FB
:1085E000294600F035FE02460B46DDE90A0100F09F
:1085F0002FFE42464B4600F0DFFF02460B46304658
:10860000394600F025FEDDE9102300F0D5FFDDE955
:108610000445CDE9060122462B462046294600F0B6
:10862000CBFF7DA3D3E9002304460D4600F0C4FF31
:108630007BA3D3E9002300F00DFE22462B4600F079
:10864000BBFF79A3D3E9002300F004FE22462B46AA
:1086500000F0B2FF76A3D3E9002300F0FBFD224631
:108660002B4600F0A9FF74A3D3E9002300F0F2FD2C
:1086700022462B4600F0A0FF71A3D3E9002300F0AF
:10868000E9FD224606460F462B462046294600F0C5
:1086900093FF02460B463046394600F08DFF4246B6
:1086A00004460D464B46DDE9040100F0D3FDDDE94B
:1086B000062300F081FF22462B4600F0CBFD424608
:1086C00006460F464B464046494600F075FF0022DD
:1086D000674BCDE90A0100F0BDFD32463B4600F094
:1086E000B9FD02980D46044622462B4640464946AF
:1086F00000F062FF0022804689465D4B20462946F5
:1087000000F0A6FDDDE90A2300F0A2FD02460B46BB
:108710003046394600F09CFDDDE9042300F04CFFB3
:10872000224606460F462B46DDE9060100F044FFCF
:1087300002460B463046394600F08CFD06460F4691
:1087400002460B4640464946CDE9048900F082FDC9
:1087500002983DA3D3E9002304460D4600F02CFF08
:10876000DDE90423804689462046294600F070FD55
:1087700002460B463046394600F06AFD34A3D3E981
:10878000002300F019FF34A3D3E9002306460F4667
:108790002046294600F010FF02460B463046394677
:1087A00000F058FDDDE90E2300F054FD06460D985B
:1087B0000F4600F09BFE324604460D463B464046BF
:1087C000494600F047FDDDE9082300F043FD22465D
:1087D0002B4600F03FFD029822462B46CDE90201D0
:1087E00000F036FDDDE9082300F032FD42464B463D
:1087F00000F02EFD02460B463046394600F028FDBB
:108800008046894636E000BF0000000000000000FE
:10881000000000000000F03FEF4E454A287ECA3FAE
:1088200065DBC9934A86CD3F01411DA96074D13FE4
:108830004D268F515555D53FFFAB6FDBB66DDB3FF6
:10884000033333333333E33F000000E009C7EE3F27
:10885000FD033ADC09C7EE3FF5015B14E02F3EBE95
:10886000000040438E98030079B60B000000F03FF3
:10887000000008400BF1FF3353EA0A0300F088813F
:108880009FEDD77B8DED067BDDE900AB53465C4663
:10889000CDE9003400230093DDE90045504622462F
:1088A0002B46594600F0D4FCDDE9022300F084FE9B
:1088B000524606460F465B464046494600F07CFE5F
:1088C00002460B463046394600F0C4FC224680463C
:1088D00089462B46DDE90201CDE9048900F06CFEF2
:1088E0000B46024606460F464046494600F0B2FC9B
:1088F000D54B994204460D468A4640F3238101F147
:108900003F4303F5E003034340F01882B6A3D3E9E5
:108910000023DDE9040100F09DFC324680468946D3
:108920003B462046294600F093FC02460B46404653
:10893000494601F0D1F8002840F00082A8464FEAED
:1089400028534FF48012A3F2FE3342FA03F3534448
:10895000C3F30A52BD4DA2F2FF321541C3F3130B0C
:108960000020C2F1140423EA05014BF4801BBAF184
:10897000000F02460B464BFA04FB30463946B8BF9F
:10898000CBF1000B00F064FC02460B4606460F4696
:10899000DDE9040100F05EFC4FEA0B5A002494A3C9
:1089A000D3E9002320460D4600F006FE32468046FD
:1089B00089463B462046294600F04AFC02460B46C3
:1089C000DDE9040100F044FC8BA3D3E9002300F0AF
:1089D000F3FD8BA3D3E9002306460F462046294624
:1089E00000F0EAFD02460B463046394600F032FC04
:1089F00006460F4602460B464046494600F02AFC12
:108A000042464B4604460D4600F022FC02460B4609
:108A10003046394600F01CFC2246804689462B46EB
:108A20002046294600F0C8FD77A3D3E90023064677
:108A30000F4600F0C1FD76A3D3E9002300F008FC47
:108A400032463B4600F0B8FD73A3D3E9002300F0A3
:108A500001FC32463B4600F0AFFD71A3D3E9002391
:108A600000F0F6FB32463B4600F0A6FD6EA3D3E9CC
:108A7000002300F0EFFB32463B4600F09DFD02462E
:108A80000B462046294600F0E3FB06460F46024609
:108A90000B462046294600F08FFD0022CDE900015B
:108AA0004FF080433046394600F0D2FB02460B4679
:108AB000DDE9000100F0AAFE424606460F464B469D
:108AC0002046294600F078FD42464B4600F0C2FBA6
:108AD00002460B463046394600F0BAFB22462B468A
:108AE00000F0B6FB02460B460020594900F0B0FBEF
:108AF0008A44BAF5801F02460B46C0F25B8151469C
:108B0000DDE9062300F058FD41EC100B49E404F1C7
:108B1000404404F5801454EA0B0300F03781BBF1A4
:108B2000010F7FF480AC024601F1004343EC102BAF
:108B300037E432463B463046394600F03DFD41ECD5
:108B4000100B2EE4434B21F00048984540F315816B
:108B5000414B0B4403430CD132463B4600F078FBBB
:108B600002460B46DDE9040100F0A2FF00283FF4B5
:108B7000E6AE2FA3D3E90023DDE9060100F01CFDDA
:108B80002BA3D3E9002300F017FD41EC100B08E400
:108B90009FED297B8DED067B76E6B9F1000FBFF6E0
:108BA0008EACDDE9003400EE103A04F1004300EE33
:108BB000903AFFF7F6BB02460B460020244900F02E
:108BC00025FE2DE49FED1E7B8DED087B8DED0E7B4C
:108BD0009FED037B4FF000088DED067BBEE400BFE8
:108BE000000000000000F03FFE822B654715973C17
:108BF00000000000432EE63FEF39FAFE422EE63F2A
:108C0000396CA80C615C20BED0A4BE726937663E88
:108C1000F16BD2C541BDBB3E2CDE25AF6A56113F7C
:108C200093BDBE166CC1663F3E5555555555C53F63
:108C300059F3F8C21F6EA501000000000000F0BF4C
:108C40000000000000000000FFFF8F40FFFF0F004A
:108C50000000F03FFFCB904000346F3F6C4B9C42D4
:108C60007FF72AAC6B4B9C423FF7C3AB0022694BAA
:108C700000F0EEFA56A3D3E9002304460D4600F0B7
:108C80009BFC55A3D3E9002380468946204629460C
:108C900000F092FC0022CDE902015F4B20462946FC
:108CA00000F08AFC02460B464DA1D1E9000100F01C
:108CB000CFFA22462B4600F07FFC02460B460020EE
:108CC000564900F0C5FA22462B4606460F46204676
:108CD000294600F071FC02460B463046394600F04A
:108CE0006BFC41A3D3E9002300F066FC02460B466F
:108CF000DDE9020100F0ACFA02460B4604460D46DF
:108D00004046494600F0A6FA42464B460020CDE9CF
:108D1000020100F09DFA02460B462046294600F06B
:108D200097FA80468946A5E532463B4600203949F8
:108D300000F06CFD41EC100BFFF733BB2CA3D3E923
:108D40000023DDE9060100F037FC29A3D3E9002365
:108D500000F032FC41EC100BFFF723BBBEF1000F1B
:108D60007FF42AABC3F1140348FA03F202FA03F3C7
:108D7000984527D0F346FFF7F7BA284B98453FF7B9
:108D8000DEADDDE900349A469B4607E602460B4617
:108D9000FFF789BB9FED187B8DED087B9FED187B5E
:108DA0008DED0E7B9FED187B4FF480288DED067BBB
:108DB000FFF7D4BB584643EC102B00F0B1F951EC4F
:108DC000100B9DE602F00102C2F1020BFFF7CCBAD4
:108DD000000000604715F73F44DF5DF80BAE543EDE
:108DE000555555555555D53FFE822B654715F73FCF
:108DF0009C7500883CE4377E0000004003B8E23FE9
:108E000006D0CF43EBFD4C3E000000000000F83FD1
:108E1000FEFFEF3F0000F03F0000D03F0000E03FCA
:108E20002DE9F041654955EC104B0E462940B14201
:108E300000F09780002D2B4610EE102A74DD2F15C0
:108E40007FD0A7F2FF37C3F31303F90743F480136E
:108E500065D403EBD27100260B447F105200B64656
:108E600016204FF400110EEB01049C424FEAD2751C
:108E70004FEA420203DC1B1B04EB010E0E440138D7
:108E800005EB43034FEA5101EDD1844620244FF016
:108E9000004109E020D003EBD275013C4FEA5101BB
:108EA0002B444FEA420220D09E4501EB0C05F1DA3B
:108EB000002D05EB010C09DBF0469542CEEB0303D8
:108EC00000D9013B521B0844C646E4E7BCF1000F41
:108ED000F2DB0EF10108F0E795421ED8002D05EBFC
:108EE000010C50DB98460023ECE7134304D0421CEE
:108EF0004DD000F00103184440087110F30701F150
:108F00007F5101F5001148BF40F0004001EB0753CD
:108F1000024643EC102BBDE8F0817346BBE75B00D3
:108F200003EBD273520094E725F00041214328D08F
:108F3000ADBB2F46D30A153F5205002BFAD0DD02F8
:108F400028D4002100E001465B00DC0201F10100B1
:108F5000F9D5C0F1200422FA04F423437F1A824099
:108F60006FE710EE102A2B4610EE100A294600F08B
:108F700023FB22462B4600F06DF941EC100BBDE8B7
:108F8000F081BDE8F081BCF1000FA2DAAAE701365A
:108F90002046B2E720244FF0FF310020DBE710EE3F
:108FA000102A2B462046294600F052F902460B466D
:108FB00000F02CFC41EC100BBDE8F0810000F07FCC
:108FC00053EC102B23F0004343EC102B704700BFF1
:108FD00010EE903A43F0004000F58010C00F70474B
:108FE00000207047000000009FED010B704700BF9C
:108FF000000000000000F87FF0B553EC102BC3F325
:109000000A56A6F2FF30132883B019464FEAD374EC
:1090100010EE105A2FDC002849DB3F4E064103EAD0
:10902000060717432CD0760833401D430CD04FF46D
:109030008023132821EA060643FA00F141EA0601DB
:109040000CBF4FF000450025344800EBC4042A460D
:10905000D4E9004510462B46224600F0FBF8CDE946
:10906000000122462B46DDE9000100F0F1F841EC59
:10907000100B03B0F0BD332806DDB0F5806F42D091
:1090800043EC102B03B0F0BDA6F213464FF0FF30B7
:10909000F0400242F4D040080242D5D04FF0804365
:1090A00025EA000043FA06F646EA0005CCE723F07D
:1090B0000040104310EE107AE2D0C3F313000743D0
:1090C000784207431548590C3F0B490407F4002721
:1090D00000EBC40047EA0103D0E9006719461046D7
:1090E0003B46324600F0B6F8CDE900013B46324639
:1090F000DDE9000100F0ACF821F0004343EAC4715F
:1091000041EC100BBEE710EE100A194600F0A2F871
:1091100041EC100BB6E700BFFFFF0F0090C50D003C
:1091200053EC102B70B5C3F30A541946054614BB13
:1091300023F0004111432AD019460022384B394E02
:1091400010EE100A00F038FAB54202460B461FDB5B
:10915000C1F30A54363C2C4440F2FE7084421FDCBA
:10916000002C2DDD21F0FF4121F4E00141EA045300
:1091700043EC102B70BD40F2FF708442EBD110EE37
:10918000100A194600F066F841EC100B70BD70BD76
:109190001FA3D3E9002300F00FFA41EC100B70BDC0
:1091A00043EC112B9FED1C0B00F040F81AA3D3E900
:1091B000002351EC100B00F0FFF941EC100B70BDD7
:1091C00014F1350F13DA4CF250318D4243EC112B70
:1091D000E8DC9FED0F0B00F029F80DA3D3E9002385
:1091E00051EC100B00F0E8F941EC100B70BD21F0D0
:1091F000FF4121F4E001363441EA04531046194698
:109200000022094B00F0D8F941EC100B70BD00BFF3
:1092100059F3F8C21F6EA5019C7500883CE4377EA7
:1092200000005043B03CFFFF0000903C53EC102B7B
:1092300011EE900A23F0004100F0004041EA0003E3
:1092400043EC102B704700BF81F0004102E000BFEB
:1092500083F0004330B54FEA41044FEA430594EAF6
:10926000050F08BF90EA020F1FBF54EA000C55EA31
:10927000020C7FEA645C7FEA655C00F0E2804FEA02
:109280005454D4EB5555B8BF6D420CDD2C4480EAE4
:10929000020281EA030382EA000083EA010180EA14
:1092A000020281EA0303362D88BF30BD11F0004F62
:1092B0004FEA01314FF4801C4CEA113102D0404298
:1092C00061EB410113F0004F4FEA03334CEA1333D3
:1092D00002D0524263EB430394EA050F00F0A780EB
:1092E000A4F10104D5F1200E0DDB02FA0EFC22FAE6
:1092F00005F2801841F1000103FA0EF2801843FADA
:1093000005F359410EE0A5F120050EF1200E012ACA
:1093100003FA0EFC28BF4CF0020C43FA05F3C01808
:1093200051EBE37101F0004507D54FF0000EDCF181
:10933000000C7EEB00006EEB0101B1F5801F1BD32A
:10934000B1F5001F0CD349085FEA30004FEA3C0C2E
:1093500004F101044FEA445212F5800F80F09A8024
:10936000BCF1004F08BF5FEA500C50F1000041EB28
:10937000045141EA050130BD5FEA4C0C404141EB2C
:10938000010111F4801FA4F10104E9D191F0000F53
:1093900004BF01460020B1FA81F308BF2033A3F1D6
:1093A0000B03B3F120020CDA0C3208DD02F1140CCD
:1093B000C2F10C0201FA0CF021FA02F10CE002F108
:1093C0001402D8BFC2F1200C01FA02F120FA0CFC01
:1093D000DCBF41EA0C019040E41AA2BF01EB04514A
:1093E000294330BD6FEA04041F3C1CDA0C340EDC48
:1093F00004F11404C4F1200220FA04F001FA02F38B
:1094000040EA030021FA04F345EA030130BDC4F148
:109410000C04C4F1200220FA02F001FA04F340EA3D
:109420000300294630BD21FA04F0294630BD94F0EE
:10943000000F83F4801306BF81F480110134013DD5
:109440004EE77FEA645C18BF7FEA655C29D094EA46
:10945000050F08BF90EA020F05D054EA000C04BFC4
:109460001946104630BD91EA030F1EBF00210020AF
:1094700030BD5FEA545C05D14000494128BF41F04E
:10948000004130BD14F580043CBF01F5801130BDB2
:1094900001F0004545F0FE4141F470014FF000003D
:1094A00030BD7FEA645C1ABF194610467FEA655CEE
:1094B0001CBF0B46024650EA013406BF52EA033590
:1094C00091EA030F41F4002130BD00BF90F0000F7E
:1094D00004BF0021704730B54FF4806404F13204BA
:1094E0004FF000054FF0000150E700BF90F0000F73
:1094F00004BF0021704730B54FF4806404F132049A
:1095000010F0004548BF40424FF000013EE700BF69
:1095100042004FEAE2014FEA31014FEA02701FBFF9
:1095200012F07F4393F07F4F81F06051704792F0CB
:10953000000F14BF93F07F4F704730B54FF4607445
:1095400001F0004521F0004120E700BF50EA010290
:1095500008BF704730B54FF000050AE050EA01023D
:1095600008BF704730B511F0004502D5404261EBAD
:1095700041014FF4806404F132045FEA915C3FF4EE
:10958000DCAE4FF003025FEADC0C18BF03325FEA87
:10959000DC0C18BF033202EBDC02C2F1200300FA3C
:1095A00003FC20FA02F001FA03FE40EA0E0021FA61
:1095B00002F11444C1E600BF70B54FF0FF0C4CF44B
:1095C000E06C1CEA11541DBF1CEA135594EA0C0F01
:1095D00095EA0C0F00F0DEF82C4481EA030621EA3C
:1095E0004C5123EA4C5350EA013518BF52EA033577
:1095F00041F4801143F4801338D0A0FB02CE4FF029
:109600000005E1FB02E506F00042E0FB03E54FF058
:109610000006E1FB03569CF0000F18BF4EF0010E50
:10962000A4F1FF04B6F5007F64F5407404D25FEA4C
:109630004E0E6D4146EB060642EAC62141EA5551FF
:109640004FEAC52040EA5E504FEACE2EB4F1FD0C41
:1096500088BFBCF5E06F1ED8BEF1004F08BF5FEABF
:10966000500E50F1000041EB045170BD06F0004671
:1096700046EA010140EA020081EA0301B4EB5C041E
:10968000C2BFD4EB0C0541EA045170BD41F4801116
:109690004FF0000E013C00F3AB8014F1360FDEBF3B
:1096A000002001F0004170BDC4F10004203C35DA17
:1096B0000C341BDC04F11404C4F1200500FA05F39A
:1096C00020FA04F001FA05F240EA020001F000423B
:1096D00021F0004110EBD37021FA04F642EB0601B1
:1096E0005EEA430E08BF20EAD37070BDC4F10C04DB
:1096F000C4F1200500FA04F320FA05F001FA04F29F
:1097000040EA020001F0004110EBD37041F100018A
:109710005EEA430E08BF20EAD37070BDC4F1200595
:1097200000FA05F24EEA020E20FA04F301FA05F2FD
:1097300043EA020321FA04F001F0004121FA04F2A5
:1097400020EA020000EBD3705EEA430E08BF20EA75
:10975000D37070BD94F0000F0FD101F000464000AF
:1097600041EB010111F4801F08BF013CF7D041EA31
:10977000060195F0000F18BF704703F00046520035
:1097800043EB030313F4801F08BF013DF7D043EA06
:109790000603704794EA0C0F0CEA135518BF95EABC
:1097A0000C0F0CD050EA410618BF52EA4306D1D143
:1097B00081EA030101F000414FF0000070BD50EA62
:1097C000410606BF1046194652EA430619D094EAEC
:1097D0000C0F02D150EA013613D195EA0C0F05D1D6
:1097E00052EA03361CBF104619460AD181EA03012A
:1097F00001F0004141F0FE4141F470014FF00000E2
:1098000070BD41F0FE4141F4780170BD70B54FF07C
:10981000FF0C4CF4E06C1CEA11541DBF1CEA1355FC
:1098200094EA0C0F95EA0C0F00F0A7F8A4EB0504DE
:1098300081EA030E52EA03354FEA013100F08880D5
:109840004FEA03334FF0805545EA131343EA12639E
:109850004FEA022245EA111545EA10654FEA002653
:109860000EF000419D4208BF964244F1FD0404F50C
:10987000407402D25B084FEA3202B61A65EB030568
:109880005B084FEA32024FF480104FF4002CB6EB25
:10989000020E75EB030E22BFB61A754640EA0C00A5
:1098A0005B084FEA3202B6EB020E75EB030E22BFE5
:1098B000B61A754640EA5C005B084FEA3202B6EB26
:1098C000020E75EB030E22BFB61A754640EA9C00E5
:1098D0005B084FEA3202B6EB020E75EB030E22BFB5
:1098E000B61A754640EADC0055EA060E18D04FEA73
:1098F000051545EA16754FEA06164FEAC30343EA13
:1099000052734FEAC2025FEA1C1CC0D111F4801FDF
:109910000BD141EA00014FF000004FF0004CB6E7D8
:1099200011F4801F04BF01430020B4F1FD0C88BF77
:10993000BCF5E06F3FF6AFAEB5EB030C04BFB6EB82
:10994000020C5FEA500C50F1000041EB045170BD75
:109950000EF0004E4EEA113114EB5C04C2BFD4EBA2
:109960000C0541EA045170BD41F480114FF0000E26
:10997000013C90E645EA060E8DE60CEA135594EAA2
:109980000C0F08BF95EA0C0F3FF43BAF94EA0C0FA5
:109990000AD150EA01347FF434AF95EA0C0F7FF41A
:1099A00025AF104619462CE795EA0C0F06D152EA6E
:1099B00003353FF4FDAE1046194622E750EA410652
:1099C00018BF52EA43067FF4C5AE50EA41047FF463
:1099D0000DAF52EA43057FF4EBAE12E74FF0FF3CC8
:1099E00006E000BF4FF0010C02E000BF4FF0010C99
:1099F0004DF804CD4FEA410C7FEA6C5C4FEA430C12
:109A000018BF7FEA6C5C1BD001B050EA410C0CBF60
:109A100052EA430C91EA030F02BF90EA020F0020C2
:109A2000704710F1000F91EA030F58BF994208BF29
:109A300090422CBFD8176FEAE37040F001007047E6
:109A40004FEA410C7FEA6C5C02D150EA013C07D13D
:109A50004FEA430C7FEA6C5CD6D152EA033CD3D088
:109A60005DF8040B704700BF8446104662468C4682
:109A70001946634600E000BF01B5FFF7B7FF0028B5
:109A800048BF10F1000F01BD4DF808EDFFF7F4FFDE
:109A90000CBF012000205DF808FB00BF4DF808ED69
:109AA000FFF7EAFF34BF012000205DF808FB00BF8C
:109AB0004DF808EDFFF7E0FF94BF012000205DF8AE
:109AC00008FB00BF4DF808EDFFF7CEFF94BF012063
:109AD00000205DF808FB00BF4DF808EDFFF7C4FF5C
